:1000000002066DC2AFF508610DFFFFC2AFF50861D2
:100010001FFFFFC2AFF5086131FFFFC2AFF50861F6
:1000200043FFFFC2AFF5086155FFFFC2AFF508619E
:1000300067FFFFC2AFF5086179FFFFC2AFF5086146
:100040008BFFFFC2AFF508619DFFFFC2AFF50861EE
:10005000AFFFFFC2AFF50861C1FFFFC2AFF5086196
:10006000D3FFFFC2AFF50861E5FFFFC2AFF508613E
:10007000F7FFFFC2AFF5088109FFFFC2AFF50881A6
:100080001BFFFFC2AFF508812DFFFFC2AFF508814E
:100090003FFFFFFF758701002274F312053A890ABA
:1000A000750C00750D08780C12063E7C807D017A77
:1000B000007B0012045574021205FB850A0D9001A5
:1000C00086E0F50EA3E0F50F7409780E12064FE5F1
:1000D0000EF50B9001867409780E12062BE0C3F51D
:1000E0000EA3E0950FF50F7402780E12062BAE0EDC
:1000F000AF0FE50D250BF50B7401650D7006744D02
:10010000250BF50B53B4F375BC0075BC008042742D
:100110008028F582740139F583E0F5BDE8240108F3
:10012000E93400F9C39408402C050A7408650A7084
:1001300003750A55750E00750F08780E12063E7C81
:10014000807D017A007B00A90A1204557402120511
:10015000FB78007900E50D650A700AE849700678B9
:1001600003790080B7E50B650A70A4EE687002EFB2
:1001700069709CE5BD85BC0C850C0EAA0EFB7F0644
:100180000205A074F612053A890CEAFEEBFF53BE95
:10019000FBE59DA2E650FAE5C654804449F5C6E564
:1001A0009E547F644970F853C67FE59EA2E740FAEB
:1001B00053C680E59E547F70FA43BE04906270740B
:1001C00008F07409F5D575D4801200998E828F835A
:1001D000E0F8A3E0F9EA687002EB6970428E828F62
:1001E00083A3A3E8F0A3E9F08E828F8374FFF0A3CA
:1001F000F0750A01750B00780A12063EEEFCEFFD61
:10020000850C0A7409780A12062BFAAB0B1204D675
:1002100074021205FBC2AF75C9AB75C95B80FE7F66
:10022000030205A074FC120615750A04750B00780C
:100230000A12063E7402120689AC82AD837A007BF4
:1002400000790812045574021205FB851A82E0F445
:100250007003A3E0F4602D851A82851B83E0F8A368
:10026000E0F9E849601E7402120689E0687003A391
:10027000E0697010750901024030C2AF75C9AB75F5
:10028000C95B80FE780A12063E7402120689AC82AF
:10029000AD837A007B00790112045574021205FBCC
:1002A000851A82E0F47003A3E0F46051851A828518
:1002B0001B83E0F8A3E0F9E8496042740212068962
:1002C000E0F8A3E0F9851A82851B83E0687003A338
:1002D000E0697010750900020830C2AF75C9AB75CE
:1002E000C95B80FE74FF68700374FF69700F851A24
:1002F00082851B83AA82AB83790112018343BE03EB
:10030000120094C2AF75C9AB75C95B80FEE5096088
:1003100007E508D2AF024033E508D2AF020833E563
:10032000096007E508D2AF02403BE508D2AF0208FA
:100330003BE5096007E508D2AF024043E508D2AFCC
:10034000020843E5096007E508D2AF02404BE50823
:10035000D2AF02084BE5096007E508D2AF0240536F
:10036000E508D2AF020853E5096007E508D2AF02FD
:10037000405BE508D2AF02085BE5096007E508D2FB
:10038000AF024063E508D2AF020863E5096007E504
:1003900008D2AF02406BE508D2AF02086BE50960F6
:1003A00007E508D2AF024073E508D2AF020873E553
:1003B000096007E508D2AF02407BE508D2AF02082A
:1003C0007BE5096007E508D2AF024083E508D2AFBC
:1003D000020883E5096007E508D2AF02408BE50813
:1003E000D2AF02088BE5096007E508D2AF0240935F
:1003F000E508D2AF020893E5096007E508D2AF022D
:10040000409BE508D2AF02089BE5096007E508D2EA
:10041000AF0240A3E508D2AF0208A3E5096007E5F3
:1004200008D2AF0240ABE508D2AF0208ABE50960E5
:1004300007E508D2AF0240B3E508D2AF0208B3E542
:10044000096007E508D2AF0240BBE508D2AF020859
:10045000BB0002045174F512053A890A740B1206A6
:1004600089E0FEA3E0FF740F550AF50C750D0074CA
:100470000B780C12062BEA2400F8EB3480F9E82400
:1004800000E9350DF9E5C7FBA2AFE433F50BC2AFC8
:10049000E50AC4540FFAE5C754F84AF5C7EE4F60B1
:1004A0002888828983E08C828D83F088828983A367
:1004B000A882A9838C828D83A3AC82AD83EE24FFB6
:1004C0001EEF34FFFFEE4F70D88BC7E50BA2E09212
:1004D000AF7F040205A074F712053A740912068969
:1004E000E0F50AA3E0F50BED900980F0ECA3F0A392
:1004F0007462F0A37473F0A3E0541FF0E50A333381
:1005000054FCA3F07406780A12064FE50A90098499
:10051000F09009867412F0A37442F053D1FE75D6A0
:1005200001EA906271F0EBA3F0906270E0D2E1F02A
:10053000E0A2E740FB7F020205A0251AC582C0E0C9
:10054000E51B34FFC583C0E0E51AC3958224F9108A
:10055000AF0885831B85821A800885831B85821AD4
:10056000D2AFCEF0A3E520F0A3780AE608F0A3DE30
:10057000FAEFF0A3E58124FBF8E608F0A3E608F023
:10058000A30808E608F0A3E608F0A315811581D0BA
:10059000E0FED0E0F815811581E8C0E0EEC0E02271
:1005A000851B83851A82E0A3FEE0A3F520780AE08C
:1005B000A3F608DFFAE0A3FFE0A3C0E0E0A3C0E0F9
:1005C000E0A3C0E0E0A3C0E010AF0885821A8583F5
:1005D0001B800885821A85831BD2AFD083D08222EC
:1005E000251AF58210AF08F51A4002151B8008F590
:1005F0001A4002151BD2AF851B8322C0D0251A10CA
:10060000AF08F51A5002051B8008F51A5002051BA9
:10061000D2AFD0D022251A10AF08F51A4002151B10
:100620008008F51A4002151BD2AF22700422600D1B
:1006300018C6C333C608C633C6D5E0F41822740200
:100640008000C0E0F4041205E0D0E012067C2260D5
:100650000C08C6C313C618C613C6D5E0F42212068A
:1006600098B9000302066712022412069375D0009F
:1006700075813F751A80751B0102065ECAC0E0E6EF
:10068000F0A308DAFAD0E0FA22251AF582E4351B45
:10069000F5832200000080FB790122FFFFFFFFFFAE
:1006A000FFFFFFFFFFFFFFFFFFFFFFFFFFFFFFFF5A
:1006B000FFFFFFFFFFFFFFFFFFFFFFFFFFFFFFFF4A
:1006C000FFFFFFFFFFFFFFFFFFFFFFFFFFFFFFFF3A
:1006D000FFFFFFFFFFFFFFFFFFFFFFFFFFFFFFFF2A
:1006E000FFFFFFFFFFFFFFFFFFFFFFFFFFFFFFFF1A
:1006F000FFFFFFFFFFFFFFFFFFFFFFFFFFFFFFFF0A
:10070000FFFFFFFFFFFFFFFFFFFFFFFFFFFFFFFFF9
:10071000FFFFFFFFFFFFFFFFFFFFFFFFFFFFFFFFE9
:10072000FFFFFFFFFFFFFFFFFFFFFFFFFFFFFFFFD9
:10073000FFFFFFFFFFFFFFFFFFFFFFFFFFFFFFFFC9
:10074000FFFFFFFFFFFFFFFFFFFFFFFFFFFFFFFFB9
:10075000FFFFFFFFFFFFFFFFFFFFFFFFFFFFFFFFA9
:10076000FFFFFFFFFFFFFFFFFFFFFFFFFFFFFFFF99
:10077000FFFFFFFFFFFFFFFFFFFFFFFFFFFFFFFF89
:10078000FFFFFFFFFFFFFFFFFFFFFFFFFFFFFFFF79
:10079000FFFFFFFFFFFFFFFFFFFFFFFFFFFFFFFF69
:1007A000FFFFFFFFFFFFFFFFFFFFFFFFFFFFFFFF59
:1007B000FFFFFFFFFFFFFFFFFFFFFFFFFFFFFFFF49
:1007C000FFFFFFFFFFFFFFFFFFFFFFFFFFFFFFFF39
:1007D000FFFFFFFFFFFFFFFFFFFFFFFFFFFFFFFF29
:1007E000FFFFFFFFFFFFFFFFFFFFFFFFFFFFFFFF19
:1007F000FFFFFFFFFFFFFFFFFFFFFFFFFFFFFFFF09
:100800000DF90DF90000005E41414141FFFFFFFF7E
:10081000FFFFFFFFFFFFFFFFFFFFFFFFFFFFFFFFE8
:10082000000102030405060708090A0BFFFFFFFF8A
:10083000020B4702165BFFFFFFFFFFFFFFFFFFFFFB
:10084000FFFFFFFFFFFFFFFFFFFFFFFFFFFFFFFFB8
:10085000FFFFFFFFFFFFFFFFFFFFFF02129BFFFFF6
:10086000FFFFFF02127DFFFFFFFFFFFFFFFFFFFF04
:10087000FFFFFFFFFFFFFFFFFFFFFFFFFFFFFFFF88
:10088000FFFFFF0216CEFFFFFFFFFFFFFFFFFFFF8F
:10089000FFFFFFFFFFFFFFFFFFFFFF021254FFFFFD
:1008A000FFFFFFFFFFFFFFFFFFFFFFFFFFFFFFFF58
:1008B000FFFFFF02150F010809646631706F616464
:1008C000051250002003020A00020106030260AA7A
:1008D000444631204F414400000000000000000069
:1008E0000000000000561D0000FFFF1C02DEA901F1
:1008F0000000C3A902DAA9010000A2081050A80252
:100900000000D10202D6A9030000D30202D8A90137
:100910000000DFA802DAA9010000A2081060A80206
:100920000000D20202D6A9030000D90202D8A90110
:100930000000ECA8FFFFFF00013075030201060074
:1009400000000000000000000000000000000000A7
:100950000000000000000000000000FFFF06008013
:100960000CE8030254657374204461746100000A4A
:100970005465737420436F6E666967000002DEA9D8
:10098000010000BDA902DAA90100001A0902C8A9E4
:100990000300008E0302D8A90100001B0902DAA996
:1009A000010000260902D2A9030000960302D8A97B
:1009B0000100002709FF0000B400002800280028DB
:1009C0003075A000A000A000A00000080008E00111
:1009D000F000100010001000100010001000500077
:1009E0005000500010001000D00700000000000070
:1009F0000F00307507001000010081FF0000FFC4E8
:100A000021E221CA21FF02020A0A025000A00000CE
:100A100000E80302DEA9010000BAA902DAA9010078
:100A200000BD0902D4A9010000C80302DAA901002F
:100A300000BE0902E4A9010000DE0302DAA90100F8
:100A400000BF0902D0A9030000E00302DAA90100F7
:100A500000C00902CEA9030000E10302DAA90100E7
:100A600000C10902CCA9010000C209FF0100FF205A
:100A700002DEA9010000C0A902DAA9010000260ACD
:100A800002CAA9000000000002D6A90300002E043B
:100A90004C274C274C274C274C274C274C274C27BE
:100AA0004C274C274C274C274C27A429BC299E298E
:100AB000E5C754F84405F5C779012200000080FB22
:100AC000120AB0B90003020B31E479217808B800AA
:100AD000028004F709D8FCE479297802B800028082
:100AE00004F709D8FCE490028078EF79068002F0E0
:100AF000A3D8FCD9FA781C9008B67A01BA00028013
:100B000007E493A3F608DAF990086EAA82AB839003
:100B100008B778FA79028015E493A3AC82AD838A92
:100B2000828B83F0A3AA82AB838C828D83D8E9D990
:100B3000E77582F47583DC7407120B597582BB75F7
:100B4000830A7400120B5975D00075813F751A80A5
:100B5000751B02759F00020AC0C09FF59FE473D009
:100B60009F22D083D082C09FE493C0E0740193C0E1
:100B7000E0740293F59F22E066701008A3E06670AF
:100B80000A08A3E066700408A3E06622C3E796089B
:100B900009E7960809E7960809E79622C3E0960850
:100BA000A3E09608A3E09608A3E09622C00AC3E05B
:100BB00096F50A08A3E096420A08A3E096420A08BE
:100BC000A3E096450A7001D3D00A22080808EAC0BB
:100BD000E0EBC0E086F0E7A4FA180986F0E7A42A63
:100BE000FA180986F0E7A42AFA180986F0E7A42A79
:100BF000FA1986F0E7A4FBE5F02AFA190886F0E76F
:100C0000A42BFBE5F03AFA190886F0E7A42BFBE5E4
:100C1000F03AFA18180986F0E7A4C5F02BFBE43A7D
:100C2000FA1908E7C5F0C6A426F6E5F03BFBE43A5E
:100C3000FA1886F0E7A4F6E5F00826F6E43B08F695
:100C4000E43A08F6D0E0FBD0E0FA22E4CFC0E0E4DA
:100C5000CEC0E0E4CDC0E0E4CCC0E075F020C3E657
:100C600033F608E633F608E633F608E633F61818E6
:100C700018EC33FCED33FDEE33FEEF33FFC3EC979E
:100C800009ED9709EE9709EF97191919400FFFEC35
:100C900097FC09ED97FD09EE97FE191906D5F0BEF0
:100CA000ECF709EDF709EEF709EFF7191919D0E09C
:100CB000FCD0E0FDD0E0FED0E0FF2260160808087E
:100CC000C6C313C618C613C618C613C618C613C69D
:100CD000D5E0EA227009080808226016181818C61C
:100CE000C333C608C633C608C633C608C633C6D51E
:100CF000E0EA22E627F60809E637F60809E637F6BD
:100D00000809E637F622E026F608A3E036F608A33F
:100D1000E036F608A3E036F622E026F008A3E03637
:100D2000F008A3E036F008A3E036F022C3E697F619
:100D30000809E697F60809E697F60809E697F62205
:100D4000C3E096F008A3E096F008A3E096F008A3AD
:100D5000E096F022E056F608A3E056F608A3E05627
:100D6000F608A3E056F622E056F008A3E056F00895
:100D7000A3E056F008A3E056F022E0F608A3E0F660
:100D800008A3E0F608A3E0F622E6F008A3E6F008E0
:100D9000A3E6F008A3E6F022E0FAA3E0FBA3E0FC60
:100DA000A3E0FD22EAF0A3EBF0A3ECF0A3EDF02228
:100DB000CAC0E0E6F0A308DAFAD0E0FA22CAC0E03E
:100DC000E0A3C582CCC582C583CDC583F0A3C5820F
:100DD000CCC582C583CDC583DAE6D0E0CA22C3E4A0
:100DE00098F8E499F9120E1F8026C3E49AFAE49B5E
:100DF000FBE920E7E9120E1FE498F8E499F922C311
:100E0000E498F8E499F9120E1FE498F8E499F9C30C
:100E1000E49AFAE49BFB22EB20E7CFE920E7E0B974
:100E20000010BB0008E88AF084F8AAF022E4FBC8AE
:100E3000FA22EB70227B10C833C8C933C93350077C
:100E4000C39AC3DBF280069A50012ADBEAC833F466
:100E5000C8C933F4C9FA2275F008E4C833C8C933E5
:100E6000C933C99AC99B5004C92AC93BD5F0ECFBC8
:100E7000C833F4C8E4C9FA22600D08C6A2E713C655
:100E800018C613C6D5E0F322600C08C6C313C618F3
:100E9000C613C6D5E0F422700422600D18C6C33311
:100EA000C608C633C6D5E0F41822251A10AF08F5D7
:100EB0001A4002151B8008F51A4002151BD2AF22FA
:100EC000C0D0251A10AF08F51A5002051B8008F58E
:100ED0001A5002051BD2AFD0D022251AF58210AFCE
:100EE00008F51A4002151B8008F51A4002151BD29E
:100EF000AF851B8322251AF582E4351BF58322E496
:100F000073251AC582C0E0E51B34FFC583C0E0E548
:100F10001AC3958224F810AF0885831B85821A8036
:100F20000885831B85821AD2AFCEF0A3E520F0A3FB
:100F3000780AE608F0A3DEFAEFF0A3E58124FAF8D8
:100F4000E608F0A3E608F0A3E608F0A30808E60820
:100F5000F0A3E608F0A315811581D0E0FED0E0F8FB
:100F6000158115811581E8C0E0EEC0E022251AC583
:100F700082C0E0E51B34FFC583C0E0E51AC395825B
:100F800024F910AF0885831B85821A800885831B8E
:100F900085821AD2AFCEF0A3E520F0A3780AE60846
:100FA000F0A3DEFAEFF0A3E58124FBF8E608F0A356
:100FB000E608F0A30808E608F0A3E608F0A3158108
:100FC0001581D0E0FED0E0F815811581E8C0E0EE93
:100FD000C0E022851B83851A82E0A3FEE0A3F520F2
:100FE000780AE0A3F608DFFAE0A3FFE0A3C0E0E0A0
:100FF000A3C0E0E0A3C0E0E0A3C0E0E0A3C0E01035
:10100000AF0885821A85831B800885821A85831B19
:10101000D2AFD083D082020B5F851B83851A82E01A
:10102000A3FEE0A3F520780AE0A3F608DFFAE0A328
:10103000FFE0A3C0E0E0A3C0E0E0A3C0E0E0A3C005
:10104000E010AF0885821A85831B800885821A8587
:10105000831BD2AFD083D08222C0D0251AC582C0D4
:10106000E0E51B34FFC583C0E0E51AC3958224F395
:1010700010AF0885831B85821A800885831B8582B3
:101080001AD2AFC8F0A3E9F0A3EAF0A3EBF0A3797A
:101090000AE709F0A3D8FAECF0A3EDF0A3EEF0A371
:1010A000EFF0A3D0E0F0A3D0E0F0A3D0E0F0A3E510
:1010B00020F0A3E5F0F0A322851B83851A82E0C00F
:1010C000E0A3E0F9A3E0FAA3E0FBA3780AE0F608C6
:1010D000A3DFFAE0FCA3E0FDA3E0FEA3E0FFA3E0B2
:1010E000C0E0A3E0C0E0A3E0F5D0A3E0F520A3E0DA
:1010F000A3F5F010AF0885831B85821A80088583CD
:101100001B85821AD2AFD082D083D0E0F8D0E032F3
:1011100074048006740280027401C0E0F404120EAC
:10112000DAD0E0120DB0227404800474028000CC86
:10113000C0E0EDC0E0E51AC39CCCAD1B50011D1012
:10114000AF068C1A8D1B80068C1A8D1BD2AF120D28
:10115000BDD0E0FDD0E0FC22D083D082E9C0E0E445
:1011600093A3C386F0C5F095F0F908E493A386F045
:10117000C5F095F0700BE493A3C3994005E9048092
:1011800002A3E475F002A42582F582E5F03583F52B
:1011900083D0E0F9E493A3C0E0E493C0E022D083DD
:1011A000D082ECC0E0EDC0E0E493A3FCE493A3FDA7
:1011B000ED4C600D1211EAEC24FFFCED34FFFD80D4
:1011C000EFE493A3FCE493A3FDED4C600D12122910
:1011D000EC24FFFCED34FFFD80EFD0E0FDD0E0FC1F
:1011E000E493A3C0E0E493C0E022C0E0C3E493969C
:1011F000087401939618400FE49366700808740110
:1012000093661870007019A3A3C3E4939608740141
:10121000939618A3A3400DD0E0D0E0D0E00211DAFD
:10122000A3A3A3A3A3A3D0E022C0E0C0F088F0E46E
:10123000936670080874019366187000A8F0A3A361
:10124000700BD0F0D0E0D0E0D0E00211DAA3A3D050
:10125000F0D0E022C0E074F2121059A2AFE433FEE5
:10126000D2AFE589A2E15003121EEE758900C2C516
:10127000751C00EEA2E092AF7F010210B8C0E074CE
:10128000F2121059A2AFE433FED2AFE58BA2E050C8
:1012900003121EEE758B00C2E880D5C0E0C0D0E816
:1012A000C0E0E5A8D2AFC2C7751C00A2E792AFD0DC
:1012B000E0F8D0D0D0E03274F5120F6DEAFEEBFF0B
:1012C000EE2434F8EF3400F9880A890BEE2435F562
:1012D00082EF3400F583E0F8EE2437F582EF340036
:1012E000F583E0F50CEC850CF0A4FCAAF0850CF07D
:1012F000EDA42AFDE82CF8E43DF97A257B00120ED6
:101300001FEA850A82850B83F05407F87401B80040
:10131000028004C333D8FCC0E0E0131313541FF859
:10132000EE28F8EF3400F9E8245DF582E93400F5A1
:1013300083D0E0F8E0586008EE2434F582EF801E98
:10134000EE2436F582EF3400F583E0F5F0EA84A868
:10135000F0EE28F8EF3400F9E82438F582E934009B
:10136000F583E0F97F0402101974F5120F6DEAFE9F
:10137000EBFFEE2434F582EF3400F583E0C0E0EEBD
:101380002435F582EF3400F583D0E0F08E828F8330
:10139000A3A3A3A3A3A3A3C082C0838E828F83A38E
:1013A000A3A3A3A3E0F8A3E0F9D083D082E0C3987D
:1013B000F50AA3E099F50BEE2480F582EF3400F5F1
:1013C00083E064017047EE2481F582EF3400F583F9
:1013D000E0FCA3E0FD8E828F83A3A3A3A3A3A3A31A
:1013E000E0FAA3E0FBC3E89AE99B4003021491C32F
:1013F000EA9CEB9D40177C117D06EEFAEFFB12266E
:10140000AAEE2480F582EF3400F583E4F0EE243474
:10141000F8EF3400F9E8FCE9FDEE2435F582EF340D
:1014200000F583E0F8EE2437F582EF3400F583E031
:10143000F50CE50A850CF0A4F50AAAF0850CF0E598
:101440000BA42AF50BE8250AF8E4350BF97A257B7D
:1014500000120E1FEA8C828D83F05407F87401B8D5
:1014600000028004C333D8FCC0E0E0131313541F00
:10147000F8EE28F8EF3400F9E8245DF582E934004D
:10148000F583D0E0F8E0586015EE2434F582EF8063
:101490002BC3E89CE99D50030213F60213EFEE24E0
:1014A00036F582EF3400F583E0F5F0EA84A8F0EE3B
:1014B00028F8EF3400F9E82438F582E93400F583A0
:1014C000E0F9121D36021364C082C083851A82853A
:1014D0001B83E0F8A3E0F9C3EA9CEB9D500BC3EC3F
:1014E00098ED99401279018010C3EA98EB9940F584
:1014F000C3EC98ED9950EE7900D083D08222EAC3F4
:101500009CFAEB9DFB22FFFF8521878522C622C026
:10151000E0C0D0E8C0E0E9C0E0EAC0E0EBC0E0EC49
:10152000C0E0EDC0E0C00AC00BC00CC00DC082C05E
:1015300083C0F0759B00906182E0A2E64003021533
:10154000EDE591A2E640030215ED7591BF9004D838
:10155000E0640570081227E21227EE80031227E8E4
:10156000752100122848E99004D9F0790012283C2E
:101570001226267A017B009004D7E0F9121DB6905E
:101580007803E064426003021636900672E014F0BD
:101590006003021636C2AF12159A00782AD0E0F620
:1015A00018D0E0F6E59F5407F9700590A962800312
:1015B00090A952780A120D7AE9C4C0E07829E6555C
:1015C0000AF50A08E6550BF50B740B780A120E881B
:1015D000D0E0250AF8906270E0A2E740F8E8C33353
:1015E000906272F0906270E0D2E0F08049E0A2E593
:1015F0005024E591A2E5501E7591DF9004D8E06477
:101600000D70139004FAE004F064287002E4F07A9C
:1016100000E0F91228A8906181E0A2E35009E5E911
:10162000A2E3500375E9F7A3E0A2E75009E591A210
:10163000E7500375917FD0F0D083D082D00DD00CCD
:10164000D00BD00AD0E0FDD0E0FCD0E0FBD0E0FA37
:10165000D0E0F9D0E0F8D0D0D0E032C0E0C0D0C0C7
:1016600082C083906183E0A2E05009E5BFA2E05010
:101670000375BFFEE0A2E15009E5BFA2E15003758A
:10168000BFFDE0A2E25009E5BFA2E2500375BFFB37
:10169000E0A2E35009E5BFA2E3500375BFF7E0A263
:1016A000E45009E5BFA2E4500375BFEFE0A2E550A6
:1016B00009E5BFA2E5500375BFDFE0A2E65009E5EA
:1016C000BFA2E6500375BFBFD083D0828088C0E040
:1016D000C0D0E8C0E0E9C0E0EAC0E0EBC0E0ECC0A8
:1016E000E0EDC0E0C0F0E5A7A2E6500FE5A1A2E65C
:1016F000500953A7BF75A1BF121733E5A7A2E55044
:101700000CE5A1A2E5500653A7DF75A1DFE5A7A26E
:10171000E15009E5A1A2E1500375A1FDE5A7A2E210
:10172000500CE5A1A2E2500653A7FB75A1FBD0F037
:1017300002164474F8120F6D7521019004D8E0640C
:101740000670151227768A828B83A3A3A3A3A3A373
:10175000E0FAA3E0FB1227D0A2AFE433FED2AF90B1
:1017600004DEE0640170187A207B009004D7E0F971
:10177000121E407A207B009004D7E0F9121DBC9025
:101780006182E0D2E6F0900671E0602185C6228099
:10179000169004DDE064017008E5C654F84405F5D0
:1017A000C653BEFC1215087401652160E4EEA2E088
:1017B00092AF7F01021019FF8E238F248582288526
:1017C0008327851A82851B83E0CEA3E0CF852882FC
:1017D000852783EBC9EAC8EDCBECCA75F010C3E8E6
:1017E00033C8E933C9EA33CAEB33CBC3EA9EF526E3
:1017F000EB9FF525B35004AB25AA26EC33CCED3393
:10180000CDD5F0DAAE23AF242274EB120F6D74FA4B
:10181000120EAA8A0A8B0B8C168D179004D8E0241E
:10182000F7C39405500690A97E02196B1227768A99
:101830000C8B0DAE0CAF0DEE4F7003021968AC0AA5
:10184000AD0B851A82851B83AA82AB831228008E7A
:10185000828F83A3A3780A120D7A90A9AA780A121C
:101860000D54851A82851B83780E120D7A90A9AAD1
:10187000780E120D54780A790E120B8C501F780ACC
:10188000790E120D2C90A95A780A120BAC4047859C
:101890000A12850B13850C14850D158041850E12D7
:1018A000850F138510148511157812790A120D2CE5
:1018B00090A95A7812120BAC501C751200751300C7
:1018C0007514007515017812790E120D2C781279A5
:1018D0000A120CF3800890A97E7812120D7A74090E
:1018E0007812120CD490A92A780A120D7A781279FB
:1018F0000A120C4B8E828F83A3A3A3A3A3A3E0F8A9
:10190000A3E0F97AD07B03120E1F880A890BE4F555
:101910000CF50D7812790A120CF37404120EF5E02E
:10192000F8A3E0F97AD07B03120E1FE8FA8A0AE4E2
:10193000F50B7812790A120B8C50077812790A127B
:101940000D2C9004D8E06408600AE064066005E0AD
:101950006405701C90A95E7812120BAC501290A90D
:10196000667812120D06800890A9967812120D7AE8
:101970008516828517837812120D897406120EC09F
:101980007F0E02101974F7120F6D12281290066F55
:10199000E064017010906245E4F0A3F053F4F34367
:1019A000FE0C5390F31227BEE5C654804449F5C699
:1019B000E59E547F644970F8906185740FF090063D
:1019C0006DE0F47002A3E0604E90066EE0600814D3
:1019D000601B14602E8040750A01750B0090066D27
:1019E000E0780A120E97E50AF45280802A750A01FF
:1019F000750B0090066DE0780A120E97E50AF45216
:101A0000908014750A01750B0090066DE0780A123B
:101A10000E97E50AF452A079007F0202101974F7BC
:101A2000120F6DE9FE902A88E493F46008E493F9BC
:101A300012261A800953C680E59E547F70FA122739
:101A4000C490066FE06401700312263290066DE0C8
:101A5000F47002A3E0604B90066EE0600814601A18
:101A600014602C803D750A01750B0090066DE078BE
:101A70000A120E97E50A42808028750A01750B004C
:101A800090066DE0780A120E97E50A429080137571
:101A90000A01750B0090066DE0780A120E97E50AB0
:101AA00042A01228121227768A0A8B0BA80AA90BC9
:101AB000E8496015E5E170FCE82414F582E934009A
:101AC000F583E0F46003E0F5E174016E700A7A01D9
:101AD0009004D7E0F9121E10021A1974F1120F6D5A
:101AE0008A0A8B0B8C0C8D0D740F120EF5780E126A
:101AF0000D7A90A9AA780A120D5490A9AA780E120C
:101B00000D54780A790E120B8C5015780A790E1242
:101B10000D2C90A95A780A120BAC4015790180134C
:101B2000780E790A120D2C90A95A780E120BAC403F
:101B3000EB79007F0802101974ED120F6D8A0A8B81
:101B40000B8C0C8D0D7413120EF5780E120D7A900D
:101B5000A9AA780A120D5490A9AA780E120D5478E9
:101B60000E790A120B8C4011780A790E120D2CAAEC
:101B70000AAB0BAC0CAD0D8022751200751300750D
:101B800014007515017812790E120D2C7812790A4D
:101B9000120CF3AA12AB13AC14AD157F0C02101982
:101BA00090A9AA780A120D7A8A828B83780A120D7C
:101BB000677F0402101974F5120F6D8C828D837883
:101BC0000A120D7A8A828B83780A120D40EA240465
:101BD000F8EB3400F98C828D83A3A3A3A3E0FCA3CC
:101BE000E0FD88828983C3E09CF0A3E09DF08882B9
:101BF0008983C3E09420A3E0944E402290A9727898
:101C00000A120D7A8A828B83780A120D198A828BC6
:101C100083A3A3A3A3E02420F0A3E0344EF08080AC
:101C200074F5120F6DE9FE900627E0FAA3E0FBEED3
:101C3000C333F8E433F974CF28F58274A839F583F7
:101C4000E02AF50AA3E03BF50B780A12111490A9DB
:101C500086120D981217B87402120EC08A0A8B0BE6
:101C60008C0C8D0D7410780A120CBBAA0AAB0B7F7A
:101C70000402101974F1120F6D8A0E8B0F8C108DE7
:101C800011740F120EF5E0FAA3E0FB7411120EF5B9
:101C9000E0F50AA3E0F50B7413120EF5E0FEA3E0E5
:101CA000FF780A121114EA2401F50AEB3400F50B4F
:101CB000E4F50CF50D780E790A120BCB90A9767825
:101CC0000A120D7A780E790A120BCBAA0EAB0FAC62
:101CD00010AD111217B87402120EC08B0BEA450B2F
:101CE00060047A0180027A00EC2AFCED3400FDECFD
:101CF000F8EDF97A717B02120E1F880A890BE4F560
:101D00000CF50D8E828F83780A120D89ECF8EDF9AF
:101D10007A717B02120E1F8A0A8B0B7405780A12E5
:101D20000E978E828F83A3A3A3A3E50AF0A3E50BEE
:101D3000F07F08021019C082C083E9906000F0D0E3
:101D400083D08222120B6293DC07120B62F6CA0761
:101D5000120B6265CC07120B62E8CC07120B620D06
:101D60009D07120B62179D07120B62589D07120BFD
:101D700062A19D07120B62DB9D07120B62319E0769
:101D8000120B62529E07120B625B9E07120B62AF30
:101D90009E07120B62D89E07120B62E29E07120B7F
:101DA00062509F07120B62E09F07120B623BA00775
:101DB000120B6269A007120B62F1A007120B6230CE
:101DC000A107120B6265A107120B6277A107120B24
:101DD0006296A107120B629FA107120B6266A2070F
:101DE000120B6202D807120B62FEDC07120B621F95
:101DF000CF07120B6255CF07120B6289CF07120B68
:101E000062D6D007120B6280DB07120B6296DB07EB
:101E1000120B62A0DB07120B62EADB07120B622FC8
:101E2000AC07120B6242AC07120B6203AD07120B38
:101E30006242AD07120B625FAD07120B6298AD07ED
:101E4000120B62E5AD07120B6217AE07120B624E62
:101E5000AE07120B6257B007120B62F9D807120BCC
:101E6000621CD907120B624BD907120B628DD9077E
:101E7000120B6258DD07120B624FFF06120B6260F5
:101E8000FF06120B62AEDD07120B62EDDD07120BCF
:101E9000627BDE07120B6286DE07120B628BDE07A7
:101EA000120B62ADDE07120B62D6D907120B62E687
:101EB000D907120B62F8D907120B62AADA07120BC4
:101EC0006200D707120B6285D707120B62E9D707AA
:101ED000120B6210D107120B6239D107120B629FED
:101EE000D107120B62BFD107120B6210D207120B7F
:101EF000626BD207120B62A5D207120B62A8D2073F
:101F0000120B6297DE07120B62A7DE07120B62AAA2
:101F1000DE07120B62F83F00120B62C3FD05120BC5
:101F20006253FF05120B62B4FF05120B62FAFF0544
:101F3000120B62699607120B62AB9607120B62C610
:101F40009607120B62979707120B62799807120B8C
:101F500062869A07120B62F89A07120B62E29B07DD
:101F6000120B62C99C07120B6253D407120B62A5B5
:101F7000D407120B6218D507120B6285D507120B16
:101F800062AFC807120B62D9C807120B62A8C90753
:101F9000120B6284CA07120B626AB406120B6299B2
:101FA000B706120B622AB906120B6281B906120B30
:101FB000629EB906120B62FDB906120B6268BB067F
:101FC000120B6237BC06120B6253BF06120B623D46
:101FD000C006120B62F7DD07120B6223C607120B55
:101FE0006268C607120B6252C707120B6276C807F7
:101FF000120B62B2D207120B62C9D207120B62F83F
:10200000D207120B6231D307120B6259D307120B9E
:102010006287D307120B629ED307120B62B5D307F8
:10202000120B62CBD307120B62F2D307120B6205BD
:10203000D407120B621BD407120B622ED407120BAB
:10204000625AEF06120B6259F006120B628EF0060E
:10205000120B62AFF006120B62BFF006120B62E0C9
:10206000F006120B62ECF106120B62B9F206120BCB
:10207000622CF306120B62B2F306120B62F5F30642
:10208000120B622CF406120B62B2F406120B62847D
:10209000F506120B62E2F506120B62FAF506120B58
:1020A0006274F606120B6277F606120B627AF60677
:1020B000120B6221F706120B6239F706120B6269E6
:1020C000F706120B6289F706120B6277F806120BFD
:1020D000622DF906120B6287A707120B62AFA707E2
:1020E000120B62DDA707120B6214A807120B627CA9
:1020F000A807120B62C5A807120B6210A907120BE2
:10210000624EA907120B628BA907120B62B9A907CD
:10211000120B6260AA07120B626AAA07120B62779F
:10212000AA07120B62AAAA07120B626CAB07120B6A
:102130006278AB07120B6290AB07120B629AAB0787
:10214000120B62B7DA07120B62CFDA07120B62E7E3
:10215000DA07120B62B8D806120B6276D906120B98
:1021600062DADA06120B6231DB06120B62B8DB06AA
:10217000120B629FDC06120B62ECDC06120B627A19
:10218000DD06120B629EDD06120B6273DF06120B78
:1021900062B4DF06120B62D6DF06120B6257E0064E
:1021A000120B6241E106120B6207E206120B626E2D
:1021B0008807120B62408907120B62E98907120B2C
:1021C000622C8A07120B62B98A07120B62458B07D1
:1021D000120B62268C07120B62558C07120B625190
:1021E0008D07120B62998D07120B629B8E07120BE3
:1021F00062DF8E07120B62058F07120B620DB907A3
:10220000120B6223B907120B6249B907120B6271F4
:10221000BA07120B627BBA07120B62D4BB07120B10
:1022200062D4BC07120B6294A207120B62A1A3072F
:10223000120B62D5A307120B6217A407120B62D10F
:10224000A507120B62F4EF05120B6257F005120B93
:10225000629CF105120B62ACF105120B62CFF10525
:10226000120B621FF205120B6215F305120B62DFEF
:10227000F305120B6257F505120B6299F505120B67
:1022800062E6F505120B620CF605120B62FAF70511
:10229000120B62FFF705120B62E0F905120B6234B4
:1022A000FA05120B6296FA05120B62BEFA05120BC2
:1022B0006262FB05120B6224FC05120B6255FC05E1
:1022C000120B6258FC05120B62A0FC05120B62F99E
:1022D000FC05120B6214CD07120B6227CD07120BFF
:1022E0006240CD07120B628BCD07120B6266CE07E0
:1022F000120B62F5CE07120B62E7A905120B6220E2
:10230000AA05120B6265AA05120B621CAB05120B23
:1023100062A2AB05120B6207AC05120B6233AC056F
:10232000120B626CAC05120B6280AE05120B625C84
:10233000B005120B6247B205120B627EB305120B99
:1023400062DEB505120B62CAB605120B6210B80543
:10235000120B621DB905120B623AB905120B6272BB
:10236000B905120B628CB905120B62F4B905120B98
:10237000628EBE05120B622FBF05120B627DBF0578
:10238000120B629BBF05120B62EFBF05120B62F7C7
:10239000C005120B627FC105120B6298F906120B81
:1023A00062A2F906120B6269FA06120B62B5FA060E
:1023B000120B62D9FA06120B6234FB06120B626C26
:1023C000FB06120B6294FB06120B62C4FC06120B96
:1023D00062EFFC06120B621AFD06120B627DFD060F
:1023E000120B62B7FD06120B62F9FD06120B624179
:1023F000FE06120B628FFE06120B62D8FE06120B4F
:102400006202FF06120B6227FF06120B6218B50765
:10241000120B62E2B507120B62CEB607120B6244D2
:10242000B707120B6286B707120B62B3B807120B1D
:1024300062E8A706120B6211A806120B622AA80610
:10244000120B626FA906120B624DAA06120B626C88
:10245000AA06120B62F9AA06120B623CAB06120B1B
:102460006289AC06120B6228AD06120B62A7AF069A
:10247000120B623EB006120B6212B106120B62F42E
:10248000B106120B6260B306120B62F3B306120BB5
:1024900062EBD507120B6254D607120B62A8D6075F
:1024A000120B62CFD607120B62C3B007120B623059
:1024B000B107120B627BB107120B6270B207120BED
:1024C000626CB307120B6256B407120B62008007EE
:1024D000120B62428007120B621C8107120B62F51D
:1024E0008107120B62F08207120B62CF8307120B77
:1024F000623B8407120B62028507120B626D85072F
:10250000120B62D48507120B62FF8507120B6270F3
:102510008607120B62038707120B626C8707120B88
:1025200062818707120B62C98707120B62E2870775
:10253000120B62478807120B624A8807120B627BF4
:10254000C007120B62A3C007120B62E1C007120B97
:10255000629FC107120B620AC207120B6226C207F2
:10256000120B624EC207120B627EC207120B628D03
:10257000C207120B6207C307120B62CF8D06120B44
:10258000629A8F06120B625C9106120B622B920606
:10259000120B62769206120B62C19206120B62DC7B
:1025A0009206120B62289306120B62629306120BBC
:1025B00062859306120B62D29306120B6245940653
:1025C000120B62579606120B62019806120B6251AB
:1025D0009806120B62969906120B62EC9906120B82
:1025E000625A9A06120B62A59A06120B62CF9A06DD
:1025F000120B62D3C006120B62FEC006120B62D130
:10260000C706120B62F5C906120B62B0CB06120B9D
:10261000620DCD06120B62E6C105120B6277C20590
:10262000120B62A4C205120B62EAC205120B6229E8
:10263000C405120B62C0C505120B6215C605120B4C
:10264000628AC605120B62B9C705120B6214C9056E
:10265000120B6216CA05120B6273CB05120B628C49
:10266000CB05120B62E9CB05120B62CBCC05120B2A
:1026700062FECC05120B626ECD05120B62E8CD0531
:10268000120B6237CE05120B6203CF05120B6208E4
:10269000D005120B62E7D005120B6272D105120B46
:1026A00062E0D105120B6254D205120B627DD20595
:1026B000120B623CD305120B62B6D405120B62D327
:1026C000D405120B62F2D405120B6283D505120BEE
:1026D00062A8D505120B62D0D505120B624BD60548
:1026E000120B62A5D605120B62F9D705120B62B662
:1026F000D805120B6289D905120B62008006120BF5
:1027000062508006120B625C8006120B62398106F1
:10271000120B62698106120B62A18106120B622004
:102720008206120B62588206120B62AA8206120BF4
:1027300062E78206120B620C8506120B623887066E
:10274000120B62338906120B620E8B06120B62FDAE
:10275000FF05120B628C2A00120B62D62A00120BA4
:1027600062B53000120B62363200120B62953800EF
:10277000120B62903900120B62CD3900120B62F01D
:102780003900120B62323A00120B623B3A00120B14
:1027900062453A00120B62313B00120B62253C008D
:1027A000120B62B7D905120B622FE405120B6235CA
:1027B000E405120B6239EB05120B62DEBC07120B4B
:1027C0006274BD07120B628ABD07120B6204BE075A
:1027D000120B625ABE07120B6298BE07120B62F50B
:1027E000BE07120B6272BF07120B627BBF07120B90
:1027F0006287BF07120B629ABF07120B62D6BF0730
:10280000120B62ECBF07120B624BC007120B624F38
:10281000C307120B625CC307120B6276C307120B6D
:1028200062B5C307120B62F3C307120B6258C407E9
:10283000120B626DC407120B6278C407120B62851B
:10284000C407120B629CC407120B62AAC407120BC6
:1028500062B5C407120B62C1C407120B62D0C40771
:10286000120B62DBC407120B62F8C407120B62087A
:10287000C507120B621EC507120B623AC507120B81
:102880006244C507120B6258C507120B6277C50771
:10289000120B62D8C507120B62DEC507120B62E489
:1028A000C507120B62EAC507120B62F0C507120BCF
:1028B00062FF9A06120B62899B06120B62D19C067C
:1028C000120B62DF9E06120B62C59F06120B62FAA4
:1028D0009F06120B621CA006120B62C5A006120B0B
:1028E0006295A206120B62BEA206120B6236A30606
:1028F000120B6268A306120B6275A306120B62C06C
:10290000A306120B62E4A306120B6235A606120B95
:10291000623FA706120B629BA706120B6259CD06F7
:10292000120B6263CD06120B6285CD06120B62910B
:10293000CD06120B6235CF06120B6262CF06120B68
:102940006278D006120B62CDD006120B6225D20639
:10295000120B6290D206120B62C5D206120B6208ED
:10296000D306120B62D2D506120B62EAD506120B01
:10297000627BD606120B6289D606120B62D6D60689
:10298000120B62E4D606120B6250D706120B62CB12
:10299000D706120B6222D806120B623CE406120B19
:1029A000625EE406120B626FE606120B622EE90607
:1029B000120B6258EA06120B6216EB06120B620249
:1029C000EC06120B623D3E00120B62623E00120BDF
:1029D00062D83E00120B627A8F07120B62838F0758
:1029E000120B628C8F07120B62649007120B621538
:1029F0009207120B62459207120B62709207120B3C
:102A000062A09207120B62CB9207120B62FF920731
:102A1000120B622B9307120B626E9307120B6299D3
:102A20009307120B62E09307120B62359407120BA7
:102A300062779407120B62D19407120B62FC940721
:102A4000120B624B9507120B627B9507120B62A665
:102A50009507120B62C99507120B6216DC07120B61
:102A60006242DC07120B626FDC07120B6279DC0733
:102A7000120B6289DC07120B6230DE07120B625DFB
:102A8000DE07FFFF31B1E1FFFFFFFFFFC082C08320
:102A9000789F790688828983A3A3A3A3A3A3E4F0E4
:102AA00088828983A3A3A3A3A374FFF0E82418F862
:102AB000E93400F9E864CF7003E9640670D6900643
:102AC000A174FFF09006A0E4F090069FF09006A29B
:102AD000F0A3F00239E974E8120F019006A2E0F5C4
:102AE0000AA3E0F50BE50A450B7006122626023014
:102AF000B0850A82850B83E014601814601524FEEB
:102B0000601124C47003022D4324C07003022D43BE
:102B10000230B0E0F91227648A0C8B0DAE0CAF0DB9
:102B2000900503E07003022C8B1226BCE9F875F0C7
:102B300004A4C8AAF02AF9740628F516740539F514
:102B400017851682F583E0F50CA3E0F50DEE4F70C6
:102B500003022C681227FA8A0E8B0F8C108D1190AD
:102B6000A97E780E120D0690A9AA780E120D54783F
:102B70000E121110850C82850D83A3A3120D9812DD
:102B80001B387404120EC08A128B138C148D15908E
:102B9000A9227812120BAC4003022C68850C8285A6
:102BA0000D83A3A37812120D7A90A9467812120D04
:102BB0000678121211108E828F83A3A3120D981221
:102BC0001ADB7404120EC0E96003022C6890A91E7F
:102BD000780E120D06780E1211108E828F83A3A329
:102BE000120D98121ADB7404120EC0E97075750E7E
:102BF000008E828F83E0640160030230B0EE650ACC
:102C00007003EF650B6003122638E50E702612275D
:102C1000FA8A0E8B0F8C108D1190A9AE780E120DC2
:102C20000690A9AA780E120D548E828F83A3A378E2
:102C30000E120D89850C82850D83A3A3780A120DCF
:102C40007A90A93E780A120D0690A9AA780A120D68
:102C500054EE240EF582EF3400F583780A120D89C4
:102C60000230A3750E018089E5162404FEE51734B1
:102C700000FF8E828F83E0F912279A8E828F83E085
:102C8000900504F0AA0CAB0D0230ADEE650A70039E
:102C9000EF650B70030230AD8E828F83E0640160BC
:102CA000030230B01226381227FA8A0A8B0B8C0CDA
:102CB0008D0D90A982780A120D06780A1211108ED5
:102CC000828F83A3A3120D98121ADB7404120EC014
:102CD000E9706D1227FA8A0A8B0B8C0C8D0D90A966
:102CE000AE780A120D0690A9AA780A120D548E82A7
:102CF0008F83A3A3780A120D899004D8E064027030
:102D00002C8E828F83A3A3780A120D7A90A96E78F5
:102D10000A120D0690A9AA780A120D54EE240EF597
:102D200082EF3400F583780A120D89801390A9721E
:102D3000120D98EE240EF582EF3400F583120DA4E7
:102D40000230A3900503E07003022FFD1226BCE9B8
:102D5000F875F004A4C8AAF02AF9740628F51874C6
:102D60000539F519851882F583E0F516A3E0F51706
:102D7000900504E0F875F004A4C8AAF02AF97406D6
:102D800028F50A740539F50B9006A0E05407700386
:102D9000022F26A3E0F91227648A0C8B0DAE0CAF2C
:102DA0000DEE4F7003022F261227FA8A0E8B0F8C1E
:102DB000108D1190A97E780E120D0690A9AA780E9A
:102DC000120D54780E121110851682851783A3A355
:102DD000120D98121B387404120EC08A128B138CB9
:102DE000148D1590A9227812120BAC4003022F26E5
:102DF000851682851783A3A37812120D7A90A946AF
:102E00007812120D0678121211108E828F83A3A3EE
:102E1000120D98121ADB7404120EC0E96003022F1F
:102E20002690A91E780E120D06780E1211108E82B1
:102E30008F83A3A3120D98121ADB7404120EC0E93B
:102E40007005750E008003750E01850A82850B835F
:102E5000A3A3A3A3E0F875F08AA4C8AAF02AF97482
:102E6000D428F50C740639F50DAA0CFB122794AA88
:102E70000CAB0D12278E7510807511007810121191
:102E8000147C007D60E50C2406FAE50D3401FB128C
:102E900027227402120EC0A80CA90D906195E0C003
:102EA000E0E82486F582E93401F583D0E0F0906112
:102EB00096E0C0E0E82487F582E93401F583D0E0AC
:102EC000F0906197E0C0E0E82488F582E93401F5EC
:102ED00083D0E0F0906198E0C0E0E82489F582E9D1
:102EE0003401F583D0E0F08E828F83E06401703688
:102EF000122638E50E70261227FA8A0A8B0B8C0CE4
:102F00008D0D90A9AE780A120D0690A9AA780A1222
:102F10000D548E828F83A3A3780A120D89851682A1
:102F2000851783022C3AE518650A7004E519650BCC
:102F30007003022FF6850A82850B83A3A3A3E0709A
:102F400003022FDA850A82850B83A3A3A3A3E0F8EB
:102F500075F08AA4C8AAF02AF974D428FE74063938
:102F6000FFEEFAEFFB122794EEFAEFFB12278E75B5
:102F70000A80750B00780A1211147C007D60EE2423
:102F800006FAEF3401FB1227227402120EC0906180
:102F900095E0C0E0EE2486F582EF3401F583D0E0C1
:102FA000F0906196E0C0E0EE2487F582EF3401F501
:102FB00083D0E0F0906197E0C0E0EE2488F582EFE6
:102FC0003401F583D0E0F0906198E0C0E0EE248910
:102FD000F582EF3401F583D0E0F0E5182404FEE536
:102FE000193400FF8E828F83E0F912279A8E828F28
:102FF00083E0900504F0AA16AB170230AD9006A04E
:10300000E0540770030230B0A3E0F91227648A0A83
:103010008B0BAE0AAF0B8E828F83E06401600302DC
:1030200030B01226381227FA8A0A8B0B8C0C8D0DC1
:1030300090A982780A120D06780A1211108E828FDA
:1030400083A3A3120D98121ADB7404120EC0E97048
:10305000521227FA8A0A8B0B8C0C8D0D90A9AE7830
:103060000A120D0690A9AA780A120D548E828F8337
:10307000A3A3780A120D899004D8E0640270118E1F
:10308000828F83A3A3780A120D7A90A96E022C4432
:1030900090A972120D98EE240EF582EF3400F5839C
:1030A000120DA49006A17401F0EEFAEFFB12275E58
:1030B0007F10020FD374F0120F01EAFEEBFFEE2433
:1030C00002F8EF3400F9880A890BEE2406F8EF3491
:1030D00000F9880C890D8882F58312112B850A82EC
:1030E000850B83120D981227D67402120EC0850C20
:1030F00082850D8312112B850A82850B83120D9810
:103100001227CA7402120EC0EE240EF582EF3400AC
:10311000F583120D981227DC8E828F83E064407055
:103120001CEE2412F8EF3400F988828983E0906065
:1031300064F088828983A3E0906065800690606473
:10314000E4F0A3F09006A2EEF0A3EFF0EE2416F563
:1031500082EF3400F583E0F8A3E0F5838882120E55
:10316000FF906054E4F0A3F0A3F0A3F0A3F0A3F069
:10317000A3F0A3F0A3F0A3F0A3F0A3F0906182E08A
:10318000C2E6F07591BFEE2415F582EF3400F583A9
:10319000E064017003122812E5E170FCEE2414F5DE
:1031A00082EF3400F583E0F46003E0F5E1EE2415EE
:1031B000F582EF3400F5837401F09004DEE06401E1
:1031C000706F1227FA8A0A8B0B8C0C8D0D780A12FD
:1031D00011108E828F83A3A3120D98121B387404D2
:1031E000120EC08A0A8B0B8C0C8D0D90A94A780E9A
:1031F000120D7A780A790E120BCB7403780A120C2E
:10320000BBE50A24F4F50AE50B3401F50B900671D1
:10321000E06003121DE0E4F50CF50D780A121110C0
:103220007A207B009004D7E0F9121E347404120E49
:10323000C07F08020FD374F0120F01890A74FF6572
:103240000A60030233C29006A0E0540770030238FC
:103250008E7A00789F790688828983A3A3A3A3A38B
:10326000E064047050EA75F018A4F8A9F074A52879
:10327000F582740639F583E0640170487A00789F1E
:10328000790688828983A3A3A3A3A3E064046003CF
:1032900002331A88828983A3A3A3A3A3A3E06401B2
:1032A0007078EA75F018A4F8A9F074A428FA7406E6
:1032B00039FB0238920AE82418F8E93400F9EAC325
:1032C000940240937A00789F790688828983A3A329
:1032D000A3A3A3E064017057EA75F018A4F8A9F05D
:1032E00074A528F582740639F583E06401704F7A7D
:1032F00000789F790688828983A3A3A3A3A3E064AF
:1033000001600302339E88828983A3A3A3A3A3A39E
:10331000E06401600302339E80880AE82418F8E91B
:103320003400F9EAC39402500302328202388E0A52
:10333000E82418F8E93400F9EAC39402408C7A00D2
:10334000789F790688828983A3A3A3A3A3E064025C
:103350007061EA75F018A4F8A9F074A528F58274D4
:103360000639F583E0640170597A00789F79068800
:10337000828983A3A3A3A3A3E06402707A888289CD
:1033800083A3A3A3A3A3A3E06401706BEA75F01861
:10339000A4F8A9F074A428FA740639FB806F0AE82F
:1033A0002418F8E93400F9EAC3940250030232F514
:1033B00002388E0AE82418F8E93400F9EAC39402C6
:1033C00040827A00789F790688828983A3A3A3A389
:1033D000A3E0650A703D88828983A3A3A3A3A3A366
:1033E000E06401702EEA75F018A4F8A9F074A4281E
:1033F000FE740639FF802F0AE82418F8E93400F932
:10340000EAC39402500302336F7A007B00023892C1
:1034100002388E0AE82418F8E93400F9EAC3940265
:1034200040A67E007F007A00789F79068882898393
:10343000A3A3A3A3A3E0650A701BEA75F018A4F880
:10344000A9F074A528F582740639F583E06401704B
:10345000137A0180110AE82418F8E93400F9EAC364
:10346000940240C87A00E50A14600F147003023613
:103470002B24FE700302378580967B00789F7906A7
:1034800088828983A3A3A3A3A3E064027055EB758C
:10349000F018A4F8A9F074A528F582740639F5830C
:1034A000E06401704D7B00789F790688828983A350
:1034B000A3A3A3A3E0640260030235618882898329
:1034C000A3A3A3A3A3A3E064016003023561EB758A
:1034D000F018A4F8A9F074A428F50C740639F50DB9
:1034E0000235790BE82418F8E93400F9EBC39402AB
:1034F000408E7B00789F790688828983A3A3A3A34B
:10350000A3E0640460030235B5EB75F018A4F8A9D4
:10351000F074A528F582740639F583E06401600330
:103520000235C77B00789F790688828983A3A3A38D
:10353000A3A3E0640460030235D288828983A3A335
:10354000A3A3A3A3E0640160030235D2EB75F018D6
:10355000A4F8A9F074A428F50C740639F50D023509
:10356000EA0BE82418F8E93400F9EBC3940250039D
:103570000234AB750C00750D00EAA2E04003023680
:103580001D850C82850D83A3A3780E120D7A90A958
:103590004E780E120D06780E1211108E828F83A3B4
:1035A000A3120D98121ADB7404120EC0E9706EEEAD
:1035B000FAEF0232B10BE82418F8E93400F9EBC352
:1035C000940250030234F8EAA2E05058EEFAEFFBFE
:1035D00080560BE82418F8E93400F9EBC394025044
:1035E00003023529750C00750D00EAA2E0502E8506
:1035F0000C82850D83A3A3780E120D7A90A94E78C4
:103600000E120D06780E1211108E828F83A3A31254
:103610000D98121ADB7404120EC0E96092AA0CAB6A
:103620000D0238927A007B000238927B00789F79F5
:103630000688828983A3A3A3A3A3E064047052EB4A
:1036400075F018A4F8A9F074A528F582740639F568
:1036500083E06401704A7B00789F790688828983C1
:10366000A3A3A3A3A3E0640460030236F9888289BC
:1036700083A3A3A3A3A3A3E06401707DEB75F0185B
:10368000A4F8A9F074A428F50C740639F50D0237D6
:10369000110BE82418F8E93400F9EBC394024091C7
:1036A0007B00789F790688828983A3A3A3A3A3E0E4
:1036B0006401600302374DEB75F018A4F8A9F074AB
:1036C000A528F582740639F583E0640160030237AA
:1036D0005F7B00789F790688828983A3A3A3A3A335
:1036E000E06401600302376A88828983A3A3A3A3ED
:1036F000A3A3E06401707380830BE82418F8E93415
:1037000000F9EBC39402500302365C750C00750D92
:1037100000EAA2E0400302361D850C82850D83A3DA
:10372000A3780E120D7A90A94E780E120D06780E1F
:103730001211108E828F83A3A3120D98121ADB74BC
:1037400004120EC0E9600302361D0235AF0BE824F7
:1037500018F8E93400F9EBC3940250030236A6EAE4
:10376000A2E0501AEEFAEFFB80180BE82418F8E9F3
:103770003400F9EBC3940250030236D7808D7A00EF
:103780007B000238927B00789F790688828983A328
:10379000A3A3A3A3E064017040EB75F018A4F8A9FB
:1037A000F074A528F582740639F583E06401703859
:1037B0007B00789F790688828983A3A3A3A3A3E0D3
:1037C0006401600302384A88828983A3A3A3A3A368
:1037D000A3E06401707402367C0BE82418F8E93425
:1037E00000F9EBC3940240A37B00789F790688829E
:1037F0008983A3A3A3A3A3E064027063EB75F0180D
:10380000A4F8A9F074A528F582740639F583E0645C
:1038100001705B7B00789F790688828983A3A3A3CC
:10382000A3A3E06402704F88828983A3A3A3A3A308
:10383000A3E064017040EB75F018A4F8A9F074A43B
:1038400028F50C740639F50D80410BE82418F8E9C9
:103850003400F9EBC3940250030237B602370B0B66
:10386000E82418F8E93400F9EBC394024080EAA296
:10387000E0501B0235AF0BE82418F8E93400F9EBEF
:10388000C394024094750C00750D000237117A0044
:103890007B0002323174F6120F01890B750A007831
:1038A0009F790688828983A3A3A3A3A3A3E06003CF
:1038B000023971E50A75F018A4F8A9F074A428FE7D
:1038C000740639FF8E828F83A37401F08E828F83FA
:1038D000E50BF01227FA8E828F83A3A3120DA48E1C
:1038E000828F83A3A3A3A3A3A3E4F0A3F090A97260
:1038F000120D98EE240EF582EF3400F583120DA41C
:10390000EE2414F582EF3400F5837401F0EE2415F3
:10391000F582EF3400F5837401F0EE2416F582EFA2
:103920003400F583E4F0A3F09006A0E0450BF0909E
:10393000069FE004F06401600C7480650B600674FF
:1039400040650B7019E50A75F018A4F8A9F074A485
:1039500028F8740639F99006A2E8F0A3E9F0E50A20
:1039600075F018A4F8A9F074A428FA740639FB803D
:1039700018050AE82418F8E93400F9E50AC39402A6
:1039800050030238A37A007B0080007F02020FD32D
:10399000C082C0838A828B83E0F8A3E0F98A828B9D
:1039A00083E4F0A3F088828983A3F088828983E08E
:1039B000F4F89006A0E058F090069FE014F0700B29
:1039C0009006A2E4F0A3F09004D8F0801CC082C05E
:1039D0008390069FE0600A9006A2E0FAA3E0FB80D5
:1039E000047A007B008002E0F9D083D082020B5F72
:1039F000C082C083E9FB7A00789F79068882898338
:103A0000A3A3A3A3A3E06B7016EA75F018A4F8A90A
:103A1000F074A528F582740639F583E0F980110A5F
:103A2000E82418F8E93400F9EAC3940240CE79009A
:103A300080B7C082C0839006A080ACC082C0839053
:103A4000069F0239E774F6120F01EAFEEBFF906160
:103A5000D0E0C0E0EE2400F582EF3401F583D0E041
:103A6000F09061D7E0FA9061D5E0C39A547FC0E04E
:103A7000EE2401F582EF3401F583D0E0F0EE24026C
:103A8000F8EF3401F99061D6E0C39A547F888289B7
:103A900083F0701A9061C5E0A2E45012E0A2E750F2
:103AA0000DEE2402F582EF3401F5837480F01228C4
:103AB00090EE2401F582EF3401F583E07034EE24BA
:103AC00002F582EF3401F583E070279061C5E0A232
:103AD000E4501FE0A2E7501AEE2402F582EF340111
:103AE000F5837480F0EE2401F582EF3401F58374E0
:103AF00080F075E1957800EE2400F582EF3401F551
:103B000083E060279061D3E0C0E0880AEE250AF5E3
:103B100082EF3400F583D0E0F008EE2400F582EF68
:103B20003401F583E0F9E8C39940D975E191023990
:103B30008B74F6120F01EAFEEBFF9061C8E0C0E063
:103B4000EE2403F582EF3401F583D0E0F09061CFED
:103B5000E0FA9061CDE0C39A547FC0E0EE2404F512
:103B600082EF3401F583D0E0F0EE2405F8EF340164
:103B7000F99061CEE0C39A547F88828983F0701AED
:103B80009061C5E0A2E05012E0A2E3500DEE2405E2
:103B9000F582EF3401F5837480F0122896EE240448
:103BA000F582EF3401F583E07034EE2405F582EF01
:103BB0003401F583E070279061C5E0A2E0501FE07A
:103BC000A2E3501AEE2405F582EF3401F5837480E8
:103BD000F0EE2404F582EF3401F5837480F01228AE
:103BE0009C7A00EE2403F582EF3401F583E0602F28
:103BF0009061CBE0C0E08A0AEE250AF8EF3400F9C4
:103C0000E82480F582E93400F583D0E0F00AEE2460
:103C100003F582EF3401F583E0F8EAC39840D175EB
:103C2000E18102398B74F2120F01890AA80AE87542
:103C3000F08AA4C8AAF02AF974D428F8740639F9CD
:103C40009061C6E0FDE054F0F075E1817C00E8246D
:103C500003F582E93401F583E0602B8C0CE8250C38
:103C6000FAE93400FBEA2480F582EB3400F583E0C6
:103C70009061CAF00CE82403F582E93401F583E091
:103C8000FAECC39A40D5E82405F582E93401F583BE
:103C9000E060049061CEF0E82404F582E93401F597
:103CA00083E060049061CDF0ED9061C6F0A80AE871
:103CB00075F08AA4C8AAF02AF974D428F8740639D1
:103CC000F9E0FCE0540FF075E1917A00E82400F58A
:103CD00082E93401F583E060238A0CE8250CF58243
:103CE000E93400F583E09061D2F00AE82400F5821F
:103CF000E93401F583E0FBEAC39B40DDE82402F5EB
:103D000082E93401F583E060049061D6F0E8240193
:103D1000F582E93401F583E060049061D5F0EC9020
:103D200061C6F0850A82AE82EEF875F08AA4C8AA50
:103D3000F02AF974D428F50C740639F50D750E8047
:103D4000750F00780E121114E50C2406FCE50D34F5
:103D500001FD7A007B601227227402120EC0A80CAB
:103D6000A90DE82486F582E93401F583E090619598
:103D7000F0E82487F582E93401F583E0906196F05C
:103D8000E82488F582E93401F583E0906197F0E852
:103D90002489F582E93401F583E0906198F0EE75AD
:103DA000F004A4CEA8F028FF74062EF58274053F17
:103DB000F583E0F8A3E0F5838882E06480700790E3
:103DC00004D87408803F900A4774A0F0A37427F0C9
:103DD000A374A0F0A37427F0A374A0F0A37427F039
:103DE000A374A0F0A37427F0A3744CF0A37427F07D
:103DF000A374A0F0A37427F0A374A6F0A37427F013
:103E00009004D87407F0900A55744CF0A37427F00E
:103E1000A3744CF0A37427F0A3744CF0A37427F0A0
:103E2000A3744CF0A37427F0A3744CF0A37427F090
:103E3000A3744CF0A37427F07F06020FD374F7121B
:103E40000F01E9900867F0122A707A067B0090084B
:103E500067E0F912248E7A207B291225427F010225
:103E60000FD374F4120F018A0A8B0BEB548060415C
:103E7000900867E0F9121D9E8A0C8B0DA80CA90D05
:103E8000E8FEE9FFE84960201229CEE970139009A5
:103E9000BCE0F4600CEEFAEFFBE0F9121D92E96071
:103EA00007EEFAEFFB121D8CAA0AE50B6480FB807B
:103EB00022EAA2E0500C122926E50A6401FAAB0BB3
:103EC00080115402600912293EE50A640280EE7AEC
:103ED000007B007F04020FD374F6120F01EAFEEBA1
:103EE000FF750A018E828F83E0246E600A24F270CF
:103EF00003023FD0023FCBA3E024F2600724D0604E
:103F00003D023FCB8E828F83A3A3A3E0641870048D
:103F1000A3E064207022EE2405123FEB2401FAA3F3
:103F2000E03400FB88828983E0F8A3E0F58388828F
:103F3000E0F91228C0E98001E4F50A023FE4750BBC
:103F400001EE2403EF34000A0A0AFBEE2405FCEF1D
:103F50003400FD8E828F83A3A3E024FB601B24FD2D
:103F600070618C828D83E0F98A828B83E0FAA3E012
:103F7000FB122938E9F50B804D900397E0A2E2503F
:103F800045900863E0F8A3E0F9E8496039E0F5837B
:103F90008882A3A3A3A3E0F8A3E0F9E8496027EE91
:103FA000240DF582EF3400F58312112B8A828B8366
:103FB000E0FAA3E0FB88828983120EFF7402120EDE
:103FC000C080B1750B00850B0A8019750A0080143A
:103FD00012292CEE2406123FEBFAA3E0FBEA4B6019
:103FE00003121F6CA90A7F02020FD3F8EF3400F905
:103FF00088828983E022FFFF851C87C2AF020B5FA6
:1040000052E752E70100009A42424242FFFFFFFF9F
:10401000FFFFFFFFFFFFFFFFFFFFFFFFFFFFFFFFB0
:10402000000102030405060708090A0BFFFFFFFF52
:1040300002471102525BFFFFFFFFFFFFFFFFFFFF81
:10404000FFFFFFFFFFFFFFFFFFFFFFFFFFFFFFFF80
:10405000FFFFFFFFFFFFFFFFFFFFFF024E9BFFFF82
:10406000FFFFFF024E7DFFFFFFFFFFFFFFFFFFFF90
:10407000FFFFFFFFFFFFFFFFFFFFFFFFFFFFFFFF50
:10408000FFFFFF0252CEFFFFFFFFFFFFFFFFFFFF1B
:10409000FFFFFFFFFFFFFFFFFFFFFF024E54FFFF89
:1040A000FFFFFFFFFFFFFFFFFFFFFFFFFFFFFFFF20
:1040B000FFFFFF02510F0114141406141E04140A0A
:1040C00010010801C800320004096466310512506D
:1040D00000A000020A000201064446312076312E7B
:1040E00030005659000062595C59FFFF0A67656E3F
:1040F0006572616C20636667000A656E61626C655B
:1041000020636667001278797A20646174613800F0
:104110001278797A206461746131340012746170AC
:104120002064617461000A746170207A207468727E
:1041300065000A74617020782074687265000A74E2
:10414000617020792074687265000A74617020744F
:104150006D6C74000A746170206C746379000A7469
:1041600061702077696E6400126666206461746114
:10417000000A6666207468726500126D6F206461C3
:104180007461000A6D6F2074687265000A66666D5E
:104190006F2064656200127472616E2064617461E4
:1041A000000A7472616E2074687265000A7472612C
:1041B0006E20646562000A7472616E206870660029
:1041C00002BD820100009A820211830100000F0AE1
:1041D00002B182030000DD0202B782010000100A72
:1041E0000211830100001C0A02B982030000DE02F2
:1041F00002B7820100001D0A021183010000280A93
:1042000002CB82010000DF0202AF82030000E20263
:1042100002B782010000290A021183010000330A5B
:1042200002CD82010000E80202AF82030000EE022C
:1042300002B782010000340A0211830100003F0A24
:1042400002EF82010000F40202AF82030000F502D7
:1042500002B782010000400A021183010000490AEE
:10426000020D83030000FB0202B7820100004A0A2C
:10427000021183010000550A020B83030000FC02B7
:1042800002B782010000560A021183010000610A90
:10429000020983030000FD0202B782010000620AE6
:1042A0000211830100006D0A020783030000FE0271
:1042B00002B7820100006E0A021183010000770A32
:1042C000020583030000FF0202B782010000780AA2
:1042D000021183010000810A02038303000000032E
:1042E00002B782010000820A0211830100008B0ADA
:1042F000020183010000010302AF820300000203F8
:1043000002B7820100008C0A021183010000940AA6
:1043100002FF82030000080302B782010000950A31
:104320000211830100009D0A02FD820100000903C1
:1043300002AF820300000A0302B7820100009E0A56
:10434000021183010000A60A02FB82030000100391
:1043500002B782010000A70A021183010000AF0A20
:1043600002F982030000110302B782010000B00AC3
:10437000021183010000B90A02F782010000120352
:1043800002AF82030000130302B782010000BA0AE1
:10439000021183010000C40A02F582030000190320
:1043A00002B782010000C50A021183010000CF0A92
:1043B00002F3820300001A0302B782010000D00A50
:1043C000021183010000D90A02F1820300001B03DD
:1043D00002B782010000DA0A1264040102BD820100
:1043E00000009D82021183010000FB0C02EB8201A0
:1043F0000000FC0C02AF820300001E03020F8301C9
:104400000000FD0C020202020202020202010D0083
:104410000000100102BD82010000A682021183018A
:104420000000270D02E58201000024030211830130
:104430000000280D02E38201000036820211830190
:104440000000290D02E182010000D28102118301E6
:1044500000002A0D02DF82010000E98102118301C0
:1044600000002B0D02DB82010000A68102118301F6
:1044700000002C0D02D982010000E48102118301A9
:1044800000002D0D02D5820100004381021183013D
:1044900000002E0D02D382010000768102118301FB
:1044A00000002F0D02D182010000300D01E803054C
:1044B0003F103A04201C02BD82010000AC820211B0
:1044C00083010000D80D1030800200000C0402AF00
:1044D000820300000E0402B7820100005181021124
:1044E00083010000D80D1040800200000D0402AFCF
:1044F00082030000140402B7820100008C81FFFFD8
:10450000FF000130750302010600000000000000FA
:10451000000000000000000000000000000000009B
:104520000000000000FFFF0600800CE80302546555
:104530007374204461746100000A546573742043ED
:104540006F6E666967000002BD82010000A98202E9
:104550001183010000500E02C382030000CD04024B
:10456000B782010000510E0211830100005C0E02AF
:10457000C582030000D50402B7820100005D0EFF72
:104580000000B4000028002800283075A000A0001A
:10459000A000A00000080008E001F00010001000DA
:1045A00010001000100010005000500050001000CB
:1045B0001000D0070000000000000F003075070059
:1045C0001000010081FF0000FFAC60CA60B260FF14
:1045D00002020A0A025000A0000000E80302BD82A5
:1045E000010000A382021183010000F30E02B582D4
:1045F0000100003405021183010000F40E02C7829D
:104600000100004A05021183010000F50E02CF826D
:104610000300004C05021183010000F60E02D78250
:104620000300004D05021183010000F70E02DD8238
:10463000010000F80EFF0100FF2002BD8201000012
:10464000A0820211830100005C0F02E982000000D9
:10465000000002AF820300009A057C667C667C66DF
:104660007C667C667C667C667C667C667C667C663A
:104670007C667C660A6922690469E5C754F84404CB
:10468000F5C779012200000080FB12467AB90003C9
:104690000246FBE479217808B800028004F709D8C3
:1046A000FCE479297802B800028004F709D8FCE418
:1046B000900280785B79088002F0A3D8FCD9FA7860
:1046C0001C9040B67A01BA00028007E493A3F60872
:1046D000DAF99009DAAA82AB839040B778C47906F8
:1046E0008015E493A3AC82AD838A828B83F0A3AA66
:1046F00082AB838C828D83D8E9D9E775828F7583ED
:10470000FE74031247237582857583467400124731
:104710002375D00075813F751A80751B02759F0047
:1047200002468AC09FF59FE473D09F22D083D08237
:10473000C09FE493C0E0740193C0E0740293F59FBE
:1047400022E066701008A3E066700A08A3E06670B5
:104750000408A3E06622C3E7960809E7960809E77C
:10476000960809E79622C3E09608A3E09608A3E01E
:104770009608A3E09622C00AC3E096F50A08A3E0D3
:1047800096420A08A3E096420A08A3E096450A70FA
:1047900001D3D00A22080808EAC0E0EBC0E086F0A6
:1047A000E7A4FA180986F0E7A42AFA180986F0E7C0
:1047B000A42AFA180986F0E7A42AFA1986F0E7A4D1
:1047C000FBE5F02AFA190886F0E7A42BFBE5F03A9E
:1047D000FA190886F0E7A42BFBE5F03AFA18180955
:1047E00086F0E7A4C5F02BFBE43AFA1908E7C5F018
:1047F000C6A426F6E5F03BFBE43AFA1886F0E7A4F7
:10480000F6E5F00826F6E43B08F6E43A08F6D0E0D0
:10481000FBD0E0FA22E4CFC0E0E4CEC0E0E4CDC0BB
:10482000E0E4CCC0E075F020C3E633F608E633F6EA
:1048300008E633F608E633F6181818EC33FCED33C7
:10484000FDEE33FEEF33FFC3EC9709ED9709EE97CA
:1048500009EF97191919400FFFEC97FC09ED97FD27
:1048600009EE97FE191906D5F0BEECF709EDF70928
:10487000EEF709EFF7191919D0E0FCD0E0FDD0E010
:10488000FED0E0FF226016080808C6C313C618C68B
:1048900013C618C613C618C613C6D5E0EA22700997
:1048A000080808226016181818C6C333C608C6338D
:1048B000C608C633C608C633C6D5E0EA22E627F6E0
:1048C0000809E637F60809E637F60809E637F6225A
:1048D000E026F608A3E036F608A3E036F608A3E0E3
:1048E00036F622E026F008A3E036F008A3E036F022
:1048F00008A3E036F022C3E697F60809E697F60823
:1049000009E697F60809E697F622C3E096F008A3B1
:10491000E096F008A3E096F008A3E096F022E056B7
:10492000F608A3E056F608A3E056F608A3E056F60C
:1049300022E056F008A3E056F008A3E056F008A3E2
:10494000E056F022E0F608A3E0F608A3E0F608A39C
:10495000E0F622E6F008A3E6F008A3E6F008A3E6F6
:10496000F022E0FAA3E0FBA3E0FCA3E0FD22EAF0E2
:10497000A3EBF0A3ECF0A3EDF022CAC0E0E6F0A3B5
:1049800008DAFAD0E0FA22CAC0E0E0A3C582CCC5BA
:1049900082C583CDC583F0A3C582CCC582C583CD36
:1049A000C583DAE6D0E0CA22C3E498F8E499F912A4
:1049B00049E98026C3E49AFAE49BFBE920E7E9127F
:1049C00049E9E498F8E499F922C3E498F8E499F9FC
:1049D0001249E9E498F8E499F9C3E49AFAE49BFBF4
:1049E00022EB20E7CFE920E7E0B90010BB0008E8A0
:1049F0008AF084F8AAF022E4FBC8FA22EB70227B4A
:104A000010C833C8C933C9335007C39AC3DBF28017
:104A1000069A50012ADBEAC833F4C8C933F4C9FA4C
:104A20002275F008E4C833C8C933C933C99AC99B91
:104A30005004C92AC93BD5F0ECFBC833F4C8E4C91B
:104A4000FA22600D08C6A2E713C618C613C6D5E041
:104A5000F322600C08C6C313C618C613C6D5E0F40B
:104A600022700422600D18C6C333C608C633C6D5EB
:104A7000E0F41822251A10AF08F51A4002151B8021
:104A800008F51A4002151BD2AF22C0D0251A10AF6C
:104A900008F51A5002051B8008F51A5002051BD2B2
:104AA000AFD0D022251AF58210AF08F51A400215B2
:104AB0001B8008F51A4002151BD2AF851B832225E7
:104AC0001AF582E4351BF58322E473251AC582C0EA
:104AD000E0E51B34FFC583C0E0E51AC3958224F8E6
:104AE00010AF0885831B85821A800885831B858209
:104AF0001AD2AFCEF0A3E520F0A3780AE608F0A31F
:104B0000DEFAEFF0A3E58124FAF8E608F0A3E60860
:104B1000F0A3E608F0A30808E608F0A3E608F0A36F
:104B200015811581D0E0FED0E0F815811581158141
:104B3000E8C0E0EEC0E022251AC582C0E0E51B34E3
:104B4000FFC583C0E0E51AC3958224F910AF08853C
:104B5000831B85821A800885831B85821AD2AFCE7B
:104B6000F0A3E520F0A3780AE608F0A3DEFAEFF060
:104B7000A3E58124FBF8E608F0A3E608F0A3080803
:104B8000E608F0A3E608F0A315811581D0E0FED079
:104B9000E0F815811581E8C0E0EEC0E022851B83B6
:104BA000851A82E0A3FEE0A3F520780AE0A3F608C8
:104BB000DFFAE0A3FFE0A3C0E0E0A3C0E0E0A3C011
:104BC000E0E0A3C0E0E0A3C0E010AF0885821A8552
:104BD000831B800885821A85831BD2AFD083D08245
:104BE000024729851B83851A82E0A3FEE0A3F520F6
:104BF000780AE0A3F608DFFAE0A3FFE0A3C0E0E054
:104C0000A3C0E0E0A3C0E0E0A3C0E010AF0885824D
:104C10001A85831B800885821A85831BD2AFD083B7
:104C2000D08222C0D0251AC582C0E0E51B34FFC562
:104C300083C0E0E51AC3958224F310AF0885831B77
:104C400085821A800885831B85821AD2AFC8F0A39B
:104C5000E9F0A3EAF0A3EBF0A3790AE709F0A3D8FF
:104C6000FAECF0A3EDF0A3EEF0A3EFF0A3D0E0F0A8
:104C7000A3D0E0F0A3D0E0F0A3E520F0A3E5F0F0AE
:104C8000A322851B83851A82E0C0E0A3E0F9A3E09C
:104C9000FAA3E0FBA3780AE0F608A3DFFAE0FCA39E
:104CA000E0FDA3E0FEA3E0FFA3E0C0E0A3E0C0E0DE
:104CB000A3E0F5D0A3E0F520A3E0A3F5F010AF0842
:104CC00085831B85821A800885831B85821AD2AF53
:104CD000D082D083D0E0F8D0E03274048006740231
:104CE00080027401C0E0F404124AA4D0E012497AB0
:104CF000227404800474028000CCC0E0EDC0E0E5C2
:104D00001AC39CCCAD1B50011D10AF068C1A8D1B15
:104D100080068C1A8D1BD2AF124987D0E0FDD0E0FF
:104D2000FC22D083D082C5F0E493A3C5F0C395F0F4
:104D3000F5F0E493A3C395F04005E5F0048001E4A9
:104D400075F002A42582F582E5F03583F583E493BE
:104D5000A3C0E0E493C0E022D083D082E9C0E0E4C5
:104D600093A3C386F0C5F095F0F908E493A386F009
:104D7000C5F095F0700BE493A3C3994005E9048056
:104D800002A3E475F002A42582F582E5F03583F5EF
:104D900083D0E0F9E493A3C0E0E493C0E022D083A1
:104DA000D082ECC0E0EDC0E0E493A3FCE493A3FD6B
:104DB000ED4C600D124DEAEC24FFFCED34FFFD805C
:104DC000EFE493A3FCE493A3FDED4C600D124E2998
:104DD000EC24FFFCED34FFFD80EFD0E0FDD0E0FCE3
:104DE000E493A3C0E0E493C0E022C0E0C3E4939660
:104DF000087401939618400FE493667008087401D4
:104E000093661870007019A3A3C3E4939608740105
:104E1000939618A3A3400DD0E0D0E0D0E0024DDA85
:104E2000A3A3A3A3A3A3D0E022C0E0C0F088F0E432
:104E3000936670080874019366187000A8F0A3A325
:104E4000700BD0F0D0E0D0E0D0E0024DDAA3A3D0D8
:104E5000F0D0E022C0E074F2124C23A2AFE433FEA3
:104E6000D2AFE589A2E15003125C1A758900C2C570
:104E7000751C00EEA2E092AF7F01024C82C0E0748C
:104E8000F2124C23A2AFE433FED2AFE58BA2E05086
:104E900003125C1A758B00C2E880D5C0E0C0D0E870
:104EA000C0E0E5A8D2AFC2C7751C00A2E792AFD0A0
:104EB000E0F8D0D0D0E03274F5124B37EAFEEBFFC9
:104EC000EE2434F8EF3400F9880A890BEE2435F526
:104ED00082EF3400F583E0F8EE2437F582EF3400FA
:104EE000F583E0F50CEC850CF0A4FCAAF0850CF041
:104EF000EDA42AFDE82CF8E43DF97A257B0012495F
:104F0000E9EA850A82850B83F05407F87401B8003A
:104F1000028004C333D8FCC0E0E0131313541FF81D
:104F2000EE28F8EF3400F9E8245DF582E93400F565
:104F300083D0E0F8E0586008EE2434F582EF801E5C
:104F4000EE2436F582EF3400F583E0F5F0EA84A82C
:104F5000F0EE28F8EF3400F9E82438F582E934005F
:104F6000F583E0F97F04024BE374F5124B37EAFE58
:104F7000EBFFEE2434F582EF3400F583E0C0E0EE81
:104F80002435F582EF3400F583D0E0F08E828F83F4
:104F9000A3A3A3A3A3A3A3C082C0838E828F83A352
:104FA000A3A3A3A3E0F8A3E0F9D083D082E0C39841
:104FB000F50AA3E099F50BEE2480F582EF3400F5B5
:104FC00083E064017047EE2481F582EF3400F583BD
:104FD000E0FCA3E0FD8E828F83A3A3A3A3A3A3A3DE
:104FE000E0FAA3E0FBC3E89AE99B4003025091C3B7
:104FF000EA9CEB9D40177C7D7D07EEFAEFFB126586
:10500000DAEE2480F582EF3400F583E4F0EE243408
:10501000F8EF3400F9E8FCE9FDEE2435F582EF34D1
:1050200000F583E0F8EE2437F582EF3400F583E0F5
:10503000F50CE50A850CF0A4F50AAAF0850CF0E55C
:105040000BA42AF50BE8250AF8E4350BF97A257B41
:10505000001249E9EA8C828D83F05407F87401B894
:1050600000028004C333D8FCC0E0E0131313541FC4
:10507000F8EE28F8EF3400F9E8245DF582E9340011
:10508000F583D0E0F8E0586015EE2434F582EF8027
:105090002BC3E89CE99D5003024FF6024FEFEE242C
:1050A00036F582EF3400F583E0F5F0EA84A8F0EEFF
:1050B00028F8EF3400F9E82438F582E93400F58364
:1050C000E0F9125936024F64C082C083851A828586
:1050D0001B83E0F8A3E0F9C3EA9CEB9D500BC3EC03
:1050E00098ED99401279018010C3EA98EB9940F548
:1050F000C3EC98ED9950EE7900D083D08222EAC3B8
:105100009CFAEB9DFB22FFFF8521878522C622C0EA
:10511000E0C0D0E8C0E0E9C0E0EAC0E0EBC0E0EC0D
:10512000C0E0EDC0E0C00AC00BC00CC00DC082C022
:1051300083C0F0759B00906182E0A2E640030251BB
:10514000EDE591A2E640030251ED7591BF90064452
:10515000E06405700812671212671E800312671858
:10516000752100126778E9900645F0790012676CA6
:105170001265567A017B00900643E0F91259DA90E5
:105180007803E0644260030252369007DEE014F0D8
:105190006003025236C2AF12519A00782AD0E0F66C
:1051A00018D0E0F6E59F5407F97005908246800319
:1051B0009081F6780A124944E9C4C0E07829E6559E
:1051C0000AF50A08E6550BF50B740B780A124A52D9
:1051D000D0E0250AF8906270E0A2E740F8E8C33317
:1051E000906272F0906270E0D2E0F08049E0A2E557
:1051F0005024E591A2E5501E7591DF900644E064CD
:105200000D7013900666E004F064287002E4F07AF2
:1052100000E0F91267EA906181E0A2E35009E5E954
:10522000A2E3500375E9F7A3E0A2E75009E591A2D4
:10523000E7500375917FD0F0D083D082D00DD00C91
:10524000D00BD00AD0E0FDD0E0FCD0E0FBD0E0FAFB
:10525000D0E0F9D0E0F8D0D0D0E032C0E0C0D0C08B
:1052600082C083906183E0A2E05009E5BFA2E050D4
:105270000375BFFEE0A2E15009E5BFA2E15003754E
:10528000BFFDE0A2E25009E5BFA2E2500375BFFBFB
:10529000E0A2E35009E5BFA2E3500375BFF7E0A227
:1052A000E45009E5BFA2E4500375BFEFE0A2E5506A
:1052B00009E5BFA2E5500375BFDFE0A2E65009E5AE
:1052C000BFA2E6500375BFBFD083D0828088C0E004
:1052D000C0D0E8C0E0E9C0E0EAC0E0EBC0E0ECC06C
:1052E000E0EDC0E0C0F0E5A7A2E6500FE5A1A2E620
:1052F000500953A7BF75A1BF125333E5A7A2E550CC
:105300000CE5A1A2E5500653A7DF75A1DFE5A7A232
:10531000E15009E5A1A2E1500375A1FDE5A7A2E2D4
:10532000500CE5A1A2E2500653A7FB75A1FBD0F0FB
:1053300002524474F8124B37752101900644E06420
:105340000670151266A68A828B83A3A3A3A3A3A3C8
:10535000E0FAA3E0FB126700A2AFE433FED2AF9005
:10536000064AE0640170187A207B00900643E0F959
:10537000125A647A207B00900643E0F91259E090BB
:105380006182E0D2E6F09007DDE0602185C62280F0
:1053900016900649E064017008E5C654F84405F526
:1053A000C653BEFC1251087401652160E4EEA2E010
:1053B00092AF7F01024BE3FF8E238F2485822885E5
:1053C0008327851A82851B83E0CEA3E0CF852882C0
:1053D000852783EBC9EAC8EDCBECCA75F010C3E8AA
:1053E00033C8E933C9EA33CAEB33CBC3EA9EF526A7
:1053F000EB9FF525B35004AB25AA26EC33CCED3357
:10540000CDD5F0DAAE23AF242274EB124B3774FA09
:10541000124A748A0A8B0B8C168D17900644E0246E
:10542000F7C39405500690822E02556B1266A68A29
:105430000C8B0DAE0CAF0DEE4F7003025568AC0A2D
:10544000AD0B851A82851B83AA82AB831267308ECF
:10545000828F83A3A3780A12494490826A780A1241
:10546000491E851A82851B83780E12494490826AF0
:10547000780E12491E780A790E124756501F780A84
:10548000790E1248F6908242780A12477640478594
:105490000A12850B13850C14850D158041850E129B
:1054A000850F138510148511157812790A1248F6A4
:1054B0009082427812124776501C751200751300C4
:1054C0007514007515017812790E1248F678127964
:1054D0000A1248BD800890822E781212494474093D
:1054E000781212489E90826E780A12494478127996
:1054F0000A1248158E828F83A3A3A3A3A3A3E0F867
:10550000A3E0F97AD07B031249E9880A890BE4F514
:105510000CF50D7812790A1248BD7404124ABFE0E6
:10552000F8A3E0F97AD07B031249E9E8FA8A0AE4A1
:10553000F50B7812790A12475650077812790A1239
:1055400048F6900644E06408600AE064066005E0FE
:105550006405701C90825278121247765012908225
:105560005678121248D0800890824E781212494420
:1055700085168285178378121249537406124A8A57
:105580007F0E024BE374F7124B371267429007DB32
:10559000E064017010906245E4F0A3F053F4F3432B
:1055A000FE0C5390F31266EEE5C654804449F5C6EE
:1055B000E59E547F644970F8906185740FF0900700
:1055C000D9E0F47002A3E0604E9007DAE0600814BE
:1055D000601B14602E8040750A01750B009007D97E
:1055E000E0780A124A61E50AF45280802A750A01BD
:1055F000750B009007D9E0780A124A61E50AF45267
:10560000908014750A01750B009007D9E0780A1292
:105610004A61E50AF452A079007F02024BE374F775
:10562000124B37E9FE9069F4E493F46008E493F9CF
:1056300012654A800953C680E59E547F70FA12664F
:10564000F49007DBE0640170031265629007D9E013
:10565000F47002A3E0604B9007DAE0600814601A6F
:1056600014602C803D750A01750B009007D9E07815
:105670000A124A61E50A42808028750A01750B000A
:105680009007D9E0780A124A61E50A4290801375C2
:105690000A01750B009007D9E0780A124A61E50A01
:1056A00042A01267421266A68A0A8B0BA80AA90BAF
:1056B000E8496015E5E170FCE82414F582E934005E
:1056C000F583E0F46003E0F5E174016E700A7A019D
:1056D000900643E0F9125A3402561974F1124B370E
:1056E0008A0A8B0B8C0C8D0D740F124ABF780E1228
:1056F000494490826A780A12491E90826A780E1292
:10570000491E780A790E1247565015780A790E12FA
:1057100048F6908242780A12477640157901801344
:10572000780E790A1248F6908242780E1247764037
:10573000EB79007F08024BE374ED124B378A0A8B3A
:105740000B8C0C8D0D7413124ABF780E12494490C5
:10575000826A780A12491E90826A780E12491E786F
:105760000E790A1247564011780A790E1248F6AAA5
:105770000AAB0BAC0CAD0D802275120075130075D1
:1057800014007515017812790E1248F67812790A0C
:105790001248BDAA12AB13AC14AD157F0C024BE33B
:1057A00090826A780A1249448A828B83780A124965
:1057B000317F04024BE374F5124B378C828D837872
:1057C0000A1249448A828B83780A12490AEA24041D
:1057D000F8EB3400F98C828D83A3A3A3A3E0FCA390
:1057E000E0FD88828983C3E09CF0A3E09DF088827D
:1057F0008983C3E09420A3E0944E402290825E7897
:105800000A1249448A828B83780A1248E38A828B7F
:1058100083A3A3A3A3E02420F0A3E0344EF0808070
:1058200074F5124B37E9FE900793E0FAA3E0FBEE24
:10583000C333F8E433F974E728F582748039F583CB
:10584000E02AF50AA3E03BF50B780A124CDE9082C1
:105850005A1249621253B87402124A8A8A0A8B0B8E
:105860008C0C8D0D7410780A124885AA0AAB0B7F38
:1058700004024BE374F1124B378A0E8B0F8C108DA0
:1058800011740F124ABFE0FAA3E0FB7411124ABF71
:10589000E0F50AA3E0F50B7413124ABFE0FEA3E0A3
:1058A000FF780A124CDEEA2401F50AEB3400F50B0E
:1058B000E4F50CF50D780E790A12479590829678EA
:1058C0000A124944780E790A124795AA0EAB0FAC1A
:1058D00010AD111253B87402124A8A8B0BEA450BB1
:1058E00060047A0180027A00EC2AFCED3400FDECC1
:1058F000F8EDF97A717B021249E9880A890BE4F51F
:105900000CF50D8E828F83780A124953ECF8EDF96D
:105910007A717B021249E98A0A8B0B7405780A12A4
:105920004A618E828F83A3A3A3A3E50AF0A3E50BAC
:10593000F07F08024BE3C082C083E9906000F0D0A2
:1059400083D0822212472C0ADD0212472C0DDD0281
:1059500012472C2FDF0212472C99E00212472C63CA
:10596000E10212472C01E20212472CB5E502124770
:105970002CCEE60212472C1CE70212472C2BFE030A
:1059800012472C53AF0312472C5DAF0312472C9ED6
:10599000AF0312472CE7AF0312472C21B003124785
:1059A0002C77B00312472C98B00312472CA1B003F8
:1059B00012472CF5B00312472C1EB10312472C28B6
:1059C000B10312472C96B10312472C26B20312479B
:1059D0002C81B20312472CAFB20312472C37B3030A
:1059E00012472C76B30312472CABB30312472CBDDE
:1059F000B30312472CDCB30312472CE5B303124761
:105A00002CACB40312472CCCF80312472C99FE039C
:105A100012472CD87D0012472C0E7E0012472C42D4
:105A20007E0012472C8F7F0012472C5AFF0112472D
:105A30002C70FF0112472C7AFF0112472CC4FF0182
:105A400012472C58C30312472C6BC30312472C2C4C
:105A5000C40312472C6BC40312472C88C40312479B
:105A60002CC1C40312472C0EC50312472C40C5039A
:105A700012472C77C50312472C80C70312472CC34B
:105A8000F90312472CE6F90312472C15FA031247C3
:105A90002C2DFA0312472C6FFA0312472C008003B7
:105AA00012472C7C800312472CA5800312472C5BE5
:105AB000830312472C27840312472C2685031247A1
:105AC0002C26890312472C92E70312472CC9E703BF
:105AD00012472CE8E70312472C8FE80312472C30BB
